{
  "_format": "hh-sol-artifact-1",
  "contractName": "Number",
  "sourceName": "contracts/Number.sol",
  "abi": [
    {
      "inputs": [],
      "name": "compPrice",
      "outputs": [
        {
          "internalType": "int256",
          "name": "",
          "type": "int256"
        }
      ],
      "stateMutability": "view",
      "type": "function"
    },
    {
      "inputs": [],
      "name": "compPriceAggregator",
      "outputs": [
        {
          "internalType": "contract AggregatorV3Interface",
          "name": "",
          "type": "address"
        }
      ],
      "stateMutability": "view",
      "type": "function"
    },
    {
      "inputs": [],
      "name": "getBalance",
      "outputs": [
        {
          "internalType": "uint256",
          "name": "",
          "type": "uint256"
        }
      ],
      "stateMutability": "view",
      "type": "function"
    },
    {
      "inputs": [],
      "name": "getPricesOfAllCoins",
      "outputs": [],
      "stateMutability": "nonpayable",
      "type": "function"
    },
    {
      "inputs": [],
      "name": "number",
      "outputs": [
        {
          "internalType": "uint256",
          "name": "",
          "type": "uint256"
        }
      ],
      "stateMutability": "view",
      "type": "function"
    },
    {
      "inputs": [],
      "name": "uniPrice",
      "outputs": [
        {
          "internalType": "int256",
          "name": "",
          "type": "int256"
        }
      ],
      "stateMutability": "view",
      "type": "function"
    },
    {
      "inputs": [],
      "name": "uniPriceAggregator",
      "outputs": [
        {
          "internalType": "contract AggregatorV3Interface",
          "name": "",
          "type": "address"
        }
      ],
      "stateMutability": "view",
      "type": "function"
    },
    {
      "stateMutability": "payable",
      "type": "receive"
    }
  ],
  "bytecode": "0x6080604052603360005573d6aa3d25116d8da79ea0246c4826eb951872e02e600160006101000a81548173ffffffffffffffffffffffffffffffffffffffff021916908373ffffffffffffffffffffffffffffffffffffffff160217905550731b39ee86ec5979ba5c322b826b3ecb8c79991699600260006101000a81548173ffffffffffffffffffffffffffffffffffffffff021916908373ffffffffffffffffffffffffffffffffffffffff1602179055503480156100bf57600080fd5b5061057e806100cf6000396000f3fe6080604052600436106100745760003560e01c8063683d80091161004e578063683d8009146101015780638381f58a1461012c578063b3b60b7e14610157578063ead6f87c146101825761007b565b806312065fe01461008057806316830e4a146100ab57806349b498ed146100d65761007b565b3661007b57005b600080fd5b34801561008c57600080fd5b50610095610199565b6040516100a2919061047a565b60405180910390f35b3480156100b757600080fd5b506100c06101a1565b6040516100cd9190610444565b60405180910390f35b3480156100e257600080fd5b506100eb6101c7565b6040516100f89190610444565b60405180910390f35b34801561010d57600080fd5b506101166101ed565b604051610123919061045f565b60405180910390f35b34801561013857600080fd5b506101416101f3565b60405161014e919061047a565b60405180910390f35b34801561016357600080fd5b5061016c6101f9565b604051610179919061045f565b60405180910390f35b34801561018e57600080fd5b506101976101ff565b005b600047905090565b600260009054906101000a900473ffffffffffffffffffffffffffffffffffffffff1681565b600160009054906101000a900473ffffffffffffffffffffffffffffffffffffffff1681565b60035481565b60005481565b60045481565b6000600160009054906101000a900473ffffffffffffffffffffffffffffffffffffffff1673ffffffffffffffffffffffffffffffffffffffff1663feaf968c6040518163ffffffff1660e01b815260040160a06040518083038186803b15801561026957600080fd5b505afa15801561027d573d6000803e3d6000fd5b505050506040513d601f19601f820116820180604052508101906102a191906103a0565b5050509150506000600260009054906101000a900473ffffffffffffffffffffffffffffffffffffffff1673ffffffffffffffffffffffffffffffffffffffff1663feaf968c6040518163ffffffff1660e01b815260040160a06040518083038186803b15801561031157600080fd5b505afa158015610325573d6000803e3d6000fd5b505050506040513d601f19601f8201168201806040525081019061034991906103a0565b50505091505081600381905550806004819055505050565b60008151905061037081610503565b92915050565b6000815190506103858161051a565b92915050565b60008151905061039a81610531565b92915050565b600080600080600060a086880312156103b857600080fd5b60006103c68882890161038b565b95505060206103d788828901610361565b94505060406103e888828901610376565b93505060606103f988828901610376565b925050608061040a8882890161038b565b9150509295509295909350565b610420816104df565b82525050565b61042f81610495565b82525050565b61043e816104bf565b82525050565b60006020820190506104596000830184610417565b92915050565b60006020820190506104746000830184610426565b92915050565b600060208201905061048f6000830184610435565b92915050565b6000819050919050565b600073ffffffffffffffffffffffffffffffffffffffff82169050919050565b6000819050919050565b600069ffffffffffffffffffff82169050919050565b60006104ea826104f1565b9050919050565b60006104fc8261049f565b9050919050565b61050c81610495565b811461051757600080fd5b50565b610523816104bf565b811461052e57600080fd5b50565b61053a816104c9565b811461054557600080fd5b5056fea26469706673582212204aacd251b373369c4884519b1cbc687194f1624e0b02473bdba929618f8329ff64736f6c63430008040033",
  "linkReferences": {},
  "deployedLinkReferences": {}
}